:100000000C942A000C9447000C9447000C94470071
:100010000C9447000C9447000C9447000C94470044
:100020000C9447000C9447000C9447000C94470034
:100030000C9447000C94ED060C9422070C9457077F
:100040000C9447000C9447000C9447000C94470014
:100050000C94470011241FBECFE5D8E0DEBFCDBF12
:1000600011E0A0E6B0E0E2E9FCE102C005900D92EB
:10007000A239B107D9F721E0A2E9B1E001C01D9290
:10008000A839B207E1F70E94B7070C94470E0C9409
:100090000000CF93DF93CDB7DEB70000DF91CF91A3
:1000A0000895CF93DF930F92CDB7DEB78983000019
:1000B0000F90DF91CF910895CF93DF930F92CDB73B
:1000C000DEB7198289810F90DF91CF910895CF9388
:1000D000DF930F92CDB7DEB789838981882F90E0B7
:1000E0008730910579F088309105C4F4823091050C
:1000F00019F0039769F012C041E062E082E00E94CB
:1001000018010DC041E067E082E00E94180107C0BD
:1001100041E063E083E00E94180101C0000000009C
:100120000F90DF91CF910895CF93DF930F92CDB7CA
:10013000DEB789838981882F90E08730910579F037
:1001400088309105C4F48230910519F0039769F065
:1001500012C041E062E082E00E9417020DC041E05F
:1001600067E082E00E94170207C041E063E083E09D
:100170000E94170201C0000000000F90DF91CF9194
:100180000895CF93DF930F92CDB7DEB7898389812E
:10019000882F90E08730910579F088309105C4F47C
:1001A0008230910519F0039769F012C040E062E0D7
:1001B00082E00E9417020DC040E067E082E00E94EA
:1001C000170207C040E063E083E00E94170201C00D
:1001D000000000000F90DF91CF910895CF93DF933F
:1001E0000F92CDB7DEB789838981882F90E0873061
:1001F000910571F088309105ACF48230910519F0C9
:10020000039759F00FC062E082E00E9430040BC0F7
:1002100067E082E00E94300406C063E083E00E9451
:10022000300401C0000000000F90DF91CF910895CD
:10023000CF93DF9300D00F92CDB7DEB789836A8367
:100240004B838B81882F90E0009721F0019709F470
:1002500076C0E6C08981882F90E08330910509F44B
:1002600055C0843091050CF068C082309105B9F119
:10027000833091050CF061C0009719F00197C1F02F
:100280005CC08AE390E0FC018081482F8A81282F9E
:1002900030E081E090E002C0880F991F2A95E2F7D4
:1002A0008095242F28238AE390E0FC01208346C018
:1002B00087E390E0FC018081482F8A81282F30E07D
:1002C00081E090E002C0880F991F2A95E2F780959F
:1002D000242F282387E390E0FC0120832FC084E3B0
:1002E00090E0FC018081482F8A81282F30E081E056
:1002F00090E002C0880F991F2A95E2F78095242F7D
:10030000282384E390E0FC01208318C081E390E07F
:10031000FC018081482F8A81282F30E081E090E025
:1003200002C0880F991F2A95E2F78095242F282371
:1003300081E390E0FC01208301C0000071C089814D
:10034000882F90E08330910509F452C084309105E4
:100350000CF064C082309105A9F1833091050CF056
:100360005DC0009719F00197B9F058C08AE390E09A
:10037000FC018081482F8A81282F30E081E090E0C5
:1003800002C0880F991F2A95E2F7242F282B8AE3B1
:1003900090E0FC01208343C087E390E0FC01808172
:1003A000482F8A81282F30E081E090E002C0880F3A
:1003B000991F2A95E2F7242F282B87E390E0FC0170
:1003C00020832DC084E390E0FC018081482F8A8146
:1003D000282F30E081E090E002C0880F991F2A9515
:1003E000E2F7242F282B84E390E0FC01208317C040
:1003F00081E390E0FC018081482F8A81282F30E042
:1004000081E090E002C0880F991F2A95E2F7242F1F
:10041000282B81E390E0FC01208301C00000000054
:1004200000000F900F900F90DF91CF910895CF9320
:10043000DF9300D00F92CDB7DEB789836A834B83F9
:100440008B81882F90E0009721F0019709F476C006
:10045000E6C08981882F90E08330910509F455C06A
:10046000843091050CF068C082309105B9F1833079
:1004700091050CF061C0009719F00197C1F05CC0C4
:100480008BE390E0FC018081482F8A81282F30E0A7
:1004900081E090E002C0880F991F2A95E2F78095CD
:1004A000242F28238BE390E0FC01208346C088E3BF
:1004B00090E0FC018081482F8A81282F30E081E084
:1004C00090E002C0880F991F2A95E2F78095242FAB
:1004D000282388E390E0FC0120832FC085E390E08F
:1004E000FC018081482F8A81282F30E081E090E054
:1004F00002C0880F991F2A95E2F78095242F2823A0
:1005000085E390E0FC01208318C082E390E0FC01C9
:100510008081482F8A81282F30E081E090E002C05E
:10052000880F991F2A95E2F78095242F282382E3CC
:1005300090E0FC01208301C0000071C08981882FF8
:1005400090E08330910509F452C0843091050CF09D
:1005500064C082309105A9F1833091050CF05DC033
:10056000009719F00197B9F058C08BE390E0FC01B7
:100570008081482F8A81282F30E081E090E002C0FE
:10058000880F991F2A95E2F7242F282B8BE390E000
:10059000FC01208343C088E390E0FC018081482F68
:1005A0008A81282F30E081E090E002C0880F991FF7
:1005B0002A95E2F7242F282B88E390E0FC01208382
:1005C0002DC085E390E0FC018081482F8A81282F8F
:1005D00030E081E090E002C0880F991F2A95E2F791
:1005E000242F282B85E390E0FC01208317C082E3B1
:1005F00090E0FC018081482F8A81282F30E081E043
:1006000090E002C0880F991F2A95E2F7242F282B2B
:1006100082E390E0FC01208301C0000000000000A4
:100620000F900F900F90DF91CF910895CF93DF93AC
:1006300000D00F92CDB7DEB78A836B8319828A818F
:10064000882F90E08330910509F443C084309105F0
:100650000CF050C08230910559F1833091050CF0B7
:1006600049C0009719F0019791F044C089E390E0E8
:10067000FC018081882F90E02B81222F30E002C086
:10068000959587952A95E2F78170898334C086E332
:1006900090E0FC018081882F90E02B81222F30E0B8
:1006A00002C0959587952A95E2F78170898323C0CA
:1006B00083E390E0FC018081882F90E02B81222F42
:1006C00030E002C0959587952A95E2F7817089837D
:1006D00012C080E390E0FC018081882F90E02B81A4
:1006E000222F30E002C0959587952A95E2F7817018
:1006F000898301C0000089810F900F900F90DF91D6
:10070000CF910895CF93DF9300D0CDB7DEB7898323
:100710006A838981882F90E08330910501F18430CC
:1007200091051CF582309105A1F083309105ECF420
:10073000009719F0019739F018C08AE390E02A81F8
:10074000FC01208313C087E390E02A81FC01208311
:100750000DC084E390E02A81FC01208307C081E37F
:1007600090E02A81FC01208301C0000000000F906E
:100770000F90DF91CF910895CF93DF9300D0CDB745
:10078000DEB789836A838981882F90E08330910561
:1007900001F1843091051CF582309105A1F0833080
:1007A0009105ECF4009719F0019739F018C08BE32C
:1007B00090E02A81FC01208313C088E390E02A8125
:1007C000FC0120830DC085E390E02A81FC01208399
:1007D00007C085E390E02A81FC01208301C000006E
:1007E00000000F900F90DF91CF910895CF93DF938A
:1007F00000D0CDB7DEB78A8319828A81882F90E036
:100800008330910501F1843091051CF5823091050A
:10081000A1F083309105ECF4009719F0019739F0BD
:1008200018C089E390E0FC018081898313C086E3CE
:1008300090E0FC01808189830DC083E390E0FC019E
:100840008081898307C080E390E0FC0180818983F7
:1008500001C0000089810F900F90DF91CF91089522
:10086000CF93DF9300D0CDB7DEB789836A838981C8
:10087000882F90E08330910509F452C084309105AF
:100880000CF064C082309105A9F1833091050CF021
:100890005DC0009719F00197B9F058C08BE390E064
:1008A000FC018081482F8A81282F30E081E090E090
:1008B00002C0880F991F2A95E2F7242F28278BE37F
:1008C00090E0FC01208343C088E390E0FC0180813C
:1008D000482F8A81282F30E081E090E002C0880F05
:1008E000991F2A95E2F7242F282788E390E0FC013E
:1008F00020832DC085E390E0FC018081482F8A8110
:10090000282F30E081E090E002C0880F991F2A95DF
:10091000E2F7242F282785E390E0FC01208317C00D
:1009200082E390E0FC018081482F8A81282F30E00B
:1009300081E090E002C0880F991F2A95E2F7242FEA
:10094000282782E390E0FC01208301C00000000022
:100950000F900F90DF91CF910895CF93DF930F9277
:10096000CDB7DEB789838981882F90E083309105E8
:1009700061F1843091059CF582309105E1F083307E
:1009800091056CF5009719F0019759F028C08BE399
:1009900090E0FC0120818BE390E02095FC01208316
:1009A0001FC088E390E0FC01208188E390E020955F
:1009B000FC01208315C085E390E0FC01208185E3E4
:1009C00090E02095FC0120830BC082E390E0FC01C5
:1009D000208182E390E02095FC01208301C000008B
:1009E00000000F90DF91CF910895CF93DF9300D057
:1009F000CDB7DEB789836A838981882F90E0833001
:100A0000910509F452C0843091050CF064C0823025
:100A10009105A9F1833091050CF05DC0009719F0A4
:100A20000197B9F058C08BE390E0FC018081482F1A
:100A30008A81282F30E081E090E002C0880F991F62
:100A40002A95E2F7242F282B8BE390E0FC012083EA
:100A500043C088E390E0FC018081482F8A81282FE1
:100A600030E081E090E002C0880F991F2A95E2F7FC
:100A7000242F282B88E390E0FC0120832DC085E300
:100A800090E0FC018081482F8A81282F30E081E0AE
:100A900090E002C0880F991F2A95E2F7242F282B97
:100AA00085E390E0FC01208317C082E390E0FC0125
:100AB0008081482F8A81282F30E081E090E002C0B9
:100AC000880F991F2A95E2F7242F282B82E390E0C4
:100AD000FC01208301C0000000000F900F90DF9107
:100AE000CF910895CF93DF9300D0CDB7DEB783E3E6
:100AF00090E09A83898389E290E02981FC01208338
:100B000089819A81292F332780E490E0FC0120839A
:100B10008BE290E0FC0120818BE290E02D7FFC01D4
:100B200020838AE290E028E1FC01208380E490E0C9
:100B300026E8FC01208300000F900F90DF91CF91F9
:100B40000895CF93DF9300D000D00F92CDB7DEB7DA
:100B50008D8319821A821B821C8214C089819A811A
:100B6000AB81BC810196A11DB11D89839A83AB83A2
:100B7000BC8389819A81AB81BC818032914AA74034
:100B8000B10571F08BE290E0FC0180818295869541
:100B90008770882F90E081709927892BF9F201C026
:100BA000000089819A81AB81BC818032914AA74043
:100BB000B105B1F119821A821B821C828CE290E08D
:100BC0002D81FC01208314C089819A81AB81BC8175
:100BD0000196A11DB11D89839A83AB83BC83898152
:100BE0009A81AB81BC818032914AA740B10571F0F6
:100BF0008BE290E0FC018081829586958770882F3A
:100C000090E081709927892BF9F201C000008BE2F6
:100C100090E0FC0120818BE290E02064FC012083C5
:100C200000000F900F900F900F900F90DF91CF91D9
:100C30000895CF93DF930F92CDB7DEB7898300007D
:100C40008BE290E0FC018081829586958770882FE9
:100C500090E081709927892B99F38CE290E02981AB
:100C6000FC01208300008BE290E0FC0180818295F2
:100C700086958770882F90E081709927892B99F34A
:100C80008BE290E0FC0120818BE290E02064FC018B
:100C9000208300000F90DF91CF910895CF93DF93D1
:100CA0000F92CDB7DEB789838CE290E02981FC01F9
:100CB000208300000F90DF91CF910895CF93DF93B1
:100CC000CDB7DEB700008BE290E0FC018081881F89
:100CD0008827881F882F90E081709927892B99F3A6
:100CE0008CE290E0FC018081DF91CF910895CF9359
:100CF000DF9300D000D00F92CDB7DEB719821A82F1
:100D00001B821C828FEF8D8314C089819A81AB81F5
:100D1000BC810196A11DB11D89839A83AB83BC83DD
:100D200089819A81AB81BC818032914AA740B1050B
:100D300071F08BE290E0FC018081881F8827881F7A
:100D4000882F90E081709927892BF9F201C000006B
:100D500089819A81AB81BC818032914AA740B105DB
:100D600029F08CE290E0FC0180818D838D810F90D1
:100D70000F900F900F900F90DF91CF910895CF9328
:100D8000DF93CDB7DEB78CE290E0FC018081DF918C
:100D9000CF910895CF93DF9300D00F92CDB7DEB7F8
:100DA00089837B836A838981833080F48A819B81F4
:100DB000892B61F08981882F90E0880F991F8E56CA
:100DC0009E4F2A813B81FC013183208300000F90DC
:100DD0000F900F90DF91CF9108951F920F920FB651
:100DE0000F9211242F933F934F935F936F937F93B1
:100DF0008F939F93AF93BF93EF93FF93CF93DF9323
:100E0000CDB7DEB78091940190919501892B31F097
:100E10008091940190919501FC0109950000DF916A
:100E2000CF91FF91EF91BF91AF919F918F917F9162
:100E30006F915F914F913F912F910F900FBE0F9047
:100E40001F9018951F920F920FB60F9211242F9397
:100E50003F934F935F936F937F938F939F93AF9342
:100E6000BF93EF93FF93CF93DF93CDB7DEB780911E
:100E7000960190919701892B31F080919601909184
:100E80009701FC0109950000DF91CF91FF91EF914F
:100E9000BF91AF919F918F917F916F915F914F9192
:100EA0003F912F910F900FBE0F901F9018951F929A
:100EB0000F920FB60F9211242F933F934F935F938E
:100EC0006F937F938F939F93AF93BF93EF93FF9312
:100ED000CF93DF93CDB7DEB78091920190919301CC
:100EE000892B31F08091920190919301FC01099539
:100EF0000000DF91CF91FF91EF91BF91AF919F9152
:100F00008F917F916F915F914F913F912F910F90B2
:100F10000FBE0F901F901895CF93DF9300D00F92C4
:100F2000CDB7DEB79B838A8319820EC08981882F53
:100F300090E02A813B81820F931FFC0180810E94F7
:100F4000A10589818F5F89838981882F90E02A811B
:100F50003B81820F931FFC018081882339F70000B9
:100F600000000F900F900F90DF91CF910895CF93D5
:100F7000DF93CDB7DEB7C252D1400FB6F894DEBFD3
:100F80000FBECDBF41E062E080E00E94180141E069
:100F900063E080E00E94180141E064E080E00E948C
:100FA000180141E060E080E00E94180141E061E04A
:100FB00080E00E9418010E94720587E0EAEEF0E0EE
:100FC000DE01D49601900D928A95E1F787E0E1EF7A
:100FD000F0E0DE01DB9601900D928A95E1F7CE01FB
:100FE0008E5B9F4F27E0E8EFF0E0DC0101900D926F
:100FF0002A95E1F7CE01875B9F4F27E0EFEFF0E006
:10100000DC0101900D922A95E1F7CE01805B9F4FA4
:1010100027E0E6E0F1E0DC0101900D922A95E1F78E
:10102000CE01895A9F4F27E0EDE0F1E0DC0101900D
:101030000D922A95E1F7CE01825A9F4F27E0E4E115
:10104000F1E0DC0101900D922A95E1F7CE018B5978
:101050009F4F27E0EBE1F1E0DC0101900D922A9532
:10106000E1F7CE0184599F4F27E0E2E2F1E0DC0195
:1010700001900D922A95E1F7CE018D589F4F27E000
:10108000E9E2F1E0DC0101900D922A95E1F7CE0151
:1010900086589F4F25E0E0E3F1E0DC0101900D92DE
:1010A0002A95E1F7CE0181589F4F25E0E5E3F1E075
:1010B000DC0101900D922A95E1F7CE018C579F4FEC
:1010C00025E0EAE3F1E0DC0101900D922A95E1F7D9
:1010D000CE0187579F4F25E0EFE3F1E0DC0101905F
:1010E0000D922A95E1F7CE0182579F4F25E0E4E467
:1010F000F1E0DC0101900D922A95E1F7CE018D56C9
:101100009F4F25E0E9E4F1E0DC0101900D922A9582
:10111000E1F7CE0188569F4F25E0EEE4F1E0DC01D7
:1011200001900D922A95E1F7CE0183569F4F25E05D
:10113000E3E5F1E0DC0101900D922A95E1F7CE01A3
:101140008E559F4F25E0E8E5F1E0DC0101900D921E
:101150002A95E1F7CE0189559F4F25E0EDE5F1E0B5
:10116000DC0101900D922A95E1F719821A821B8207
:10117000CE0184559F4F21E1E2E6F1E0DC010190D0
:101180000D922A95E1F7CE0183549F4F2FE0E3E7BC
:10119000F1E0DC0101900D922A95E1F7CE01845334
:1011A0009F4F2FE0E2E8F1E0DC0101900D922A95DB
:1011B000E1F71D8218860E945E060E945E06CE013F
:1011C00084559F4F0E948C0780E00E94A1051C82DD
:1011D00011C00E945E0689878C81882F90E09E0155
:1011E00025523F4F820F931F2985DC012C938C8160
:1011F0008F5F8C838C81873060F3CE0183549F4F47
:101200000E948C0780E00E94A1051F821E8212C0EE
:101210000E945E0689879E012E513F4F8E819F81DD
:10122000820F931F2985FC0120838E819F81019667
:101230009F838E838E819F81059754F39E012C5C42
:101240003F4FCE0185529F4FB9010E943E0E892B20
:1012500019F481E089837FC09E01255C3F4FCE0158
:1012600085529F4FB9010E943E0E892B19F482E0EE
:10127000898371C09E012E5B3F4FCE0185529F4FE7
:10128000B9010E943E0E892B19F483E0898363C063
:101290009E01275B3F4FCE0185529F4FB9010E94AF
:1012A0003E0E892B19F484E0898355C09E01205B92
:1012B0003F4FCE0185529F4FB9010E943E0E892BB0
:1012C00019F485E0898347C09E01295A3F4FCE011A
:1012D00085529F4FB9010E943E0E892B19F486E07A
:1012E000898339C09E01225A3F4FCE0185529F4FBC
:1012F000B9010E943E0E892B19F487E089832BC027
:101300009E012B593F4FCE0185529F4FB9010E943C
:101310003E0E892B19F488E089831DC09E01245953
:101320003F4FCE0185529F4FB9010E943E0E892B3F
:1013300019F489E089830FC09E012D583F4FCE01DB
:1013400085529F4FB9010E943E0E892B19F48AE005
:10135000898301C019829E0126583F4FCE018E51CC
:101360009F4FB9010E943E0E892B19F481E08A83B8
:101370007FC09E0121583F4FCE018E519F4FB90132
:101380000E943E0E892B19F482E08A8371C09E016F
:101390002C573F4FCE018E519F4FB9010E943E0EF8
:1013A000892B19F483E08A8363C09E0127573F4F3E
:1013B000CE018E519F4FB9010E943E0E892B19F428
:1013C00084E08A8355C09E0122573F4FCE018E5143
:1013D0009F4FB9010E943E0E892B19F485E08A8344
:1013E00047C09E012D563F4FCE018E519F4FB901F0
:1013F0000E943E0E892B19F486E08A8339C09E0133
:1014000028563F4FCE018E519F4FB9010E943E0E8C
:10141000892B19F487E08A832BC09E0123563F4F06
:10142000CE018E519F4FB9010E943E0E892B19F4B7
:1014300088E08A831DC09E012E553F4FCE018E51FC
:101440009F4FB9010E943E0E892B19F489E08A83CF
:101450000FC09E0129553F4FCE018E519F4FB901BC
:101460000E943E0E892B19F48AE08A8301C01A82F9
:101470008981882339F08A81882321F099818A81A2
:10148000981701F1CE0184539F4F0E948C0780E092
:101490000E94A1058D818F5F8D838D81833031F511
:1014A00080E690E00E948C0780E00E94A10541E068
:1014B00062E080E00E94170241E063E080E00E9469
:1014C000170214C01D8240E062E080E00E94170213
:1014D00040E063E080E00E94170281E790E00E9414
:1014E0008C0780E00E94A10581E08B83A7C286E87B
:1014F00090E00E948C0780E00E94A1058BE990E0BB
:101500000E948C0780E00E94A1058CEA90E00E9476
:101510008C0780E00E94A1058CEB90E00E948C0774
:1015200080E00E94A1058BEC90E00E948C0780E097
:101530000E94A1050E945E0688878885882F90E01A
:101540008C34910509F462C28D3491050CF06EC2A1
:101550008634910509F460C2873491050CF066C2A7
:101560008434910529F08534910509F45BC25EC28B
:1015700040E060E080E00E94170241E061E080E02E
:101580000E94170280E090E0AAEFB4E48EA39FA32C
:10159000A8A7B9A720E030E04AEF54E46EA17FA1EC
:1015A00088A599A50E94A90DCD50DF4F6883798346
:1015B0008A839B83C35FD040CD50DF4F8881998160
:1015C000AA81BB81C35FD0408AA79BA7ACA7BDA758
:1015D00020E030E040E85FE36AA57BA58CA59DA5EF
:1015E0000E94230D88232CF481E090E09FA78EA712
:1015F00075C020E03FEF4FE757E46AA57BA58CA5B7
:101600009DA50E94A40D18160CF052C020E030E0F9
:1016100040E251E46EA17FA188A599A50E94A90D81
:10162000C950DF4F688379838A839B83C75FD0402B
:10163000C950DF4F88819981AA81BB81C75FD040A3
:10164000C151DF4F88839983AA83BB83CF5ED0408B
:10165000C151DF4F688179818A819B81CF5ED04003
:101660000E94280DC550DF4F688379838A839B834E
:10167000CB5FD040C550DF4FA881B981CB5FD04050
:10168000BFA7AEA710C088EC90E099AB88AB88A943
:1016900099A90197F1F799AB88AB00008EA59FA59A
:1016A00001979FA78EA78EA59FA5892B61F721C0C3
:1016B0006AA57BA58CA59DA50E94280DC150DF4F72
:1016C000688379838A839B83CF5FD040C150DF4F8B
:1016D000E881F981CF5FD040FFA7EEA78EA59FA537
:1016E0009BAB8AAB8AA99BA90197F1F79BAB8AAB0D
:1016F000000040E060E080E00E94170240E061E00E
:1017000080E00E94170280E090E4ACE9B5E4888FA5
:10171000998FAA8FBB8F20E030E04AEF54E4688DA8
:10172000798D8A8D9B8D0E94A90DCD5FDE4F6883D8
:1017300079838A839B83C350D140CD5FDE4F8881FC
:101740009981AA81BB81C350D1408C8F9D8FAE8F70
:10175000BF8F20E030E040E85FE36C8D7D8D8E8DA3
:101760009F8D0E94230D88232CF481E090E099A3A3
:1017700088A375C020E03FEF4FE757E46C8D7D8D67
:101780008E8D9F8D0E94A40D18160CF052C020E083
:1017900030E040E251E4688D798D8A8D9B8D0E9406
:1017A000A90DC95FDE4F688379838A839B83C75005
:1017B000D140C95FDE4F88819981AA81BB81C75022
:1017C000D140C551DF4F88839983AA83BB83CB5E09
:1017D000D040C551DF4F688179818A819B81CB5E82
:1017E000D0400E94280DC55FDE4F688379838A83CD
:1017F0009B83CB50D140C55FDE4FA881B981CB50D0
:10180000D140B9A3A8A310C088EC90E09BA38AA301
:101810008AA19BA10197F1F79BA38AA3000088A14D
:1018200099A1019799A388A388A199A1892B61F710
:1018300021C06C8D7D8D8E8D9F8D0E94280DC15F86
:10184000DE4F688379838A839B83CF50D140C15F09
:10185000DE4FE881F981CF50D140F9A3E8A388A1F8
:1018600099A19DA38CA38CA19DA10197F1F79DA3A4
:101870008CA3000041E060E080E00E94170240E09D
:1018800061E080E00E94170280E090E0AAEFB4E4FB
:101890008A879B87AC87BD8720E030E04AEF54E41D
:1018A0006A857B858C859D850E94A90DCD5EDE4F66
:1018B000688379838A839B83C351D140CD5EDE4F99
:1018C00088819981AA81BB81C351D1408E879F872E
:1018D000A88BB98B20E030E040E85FE36E857F8520
:1018E000888999890E94230D88232CF481E090E057
:1018F0009B8B8A8B75C020E03FEF4FE757E46E85E6
:101900007F85888999890E94A40D18160CF052C011
:1019100020E030E040E251E46A857B858C859D853E
:101920000E94A90DC95EDE4F688379838A839B83F9
:10193000C751D140C95EDE4F88819981AA81BB81A0
:10194000C751D140C951DF4F88839983AA83BB8394
:10195000C75ED040C951DF4F688179818A819B8100
:10196000C75ED0400E94280DC55EDE4F6883798334
:101970008A839B83CB51D140C55EDE4FA881B9815C
:10198000CB51D140BB8BAA8B10C088EC90E09D8BD3
:101990008C8B8C899D890197F1F79D8B8C8B000036
:1019A0008A899B8901979B8B8A8B8A899B89892B42
:1019B00061F721C06E857F85888999890E94280DED
:1019C000C15EDE4F688379838A839B83CF51D14088
:1019D000C15EDE4FE881F981CF51D140FB8BEA8BAC
:1019E0008A899B899F8B8E8B8E899F890197F1F7BE
:1019F0009F8B8E8B000040E060E080E00E94170229
:101A000040E061E080E00E94170218C041E064E01D
:101A100080E00E94170212C040E064E080E00E9473
:101A200017020CC01B820E945E0608C087ED90E082
:101A30000E948C0780E00E94A10500008B81882312
:101A400009F055CDBCCB0E94570D08F481E00895F4
:101A50000E94830D88F09F5798F0B92F9927B751AE
:101A6000B0F0E1F0660F771F881F991F1AF0BA9542
:101A7000C9F714C0B13091F00E949D0DB1E00895F6
:101A80000C949D0D672F782F8827B85F39F0B93FE8
:101A9000CCF3869577956795B395D9F73EF49095F5
:101AA0008095709561957F4F8F4F9F4F0895990F47
:101AB0000008550FAA0BE0E8FEEF16161706E80718
:101AC000F907C0F012161306E407F50798F0621B39
:101AD000730B840B950B39F40A2661F0232B242B0E
:101AE000252B21F408950A2609F4A140A6958FEF2D
:101AF000811D811D089557FD9058440F551F59F0C1
:101B00005F3F71F04795880F97FB991F61F09F3FEA
:101B100079F087950895121613061406551FF2CF13
:101B20004695F1DF08C0161617061806991FF1CF63
:101B300086957105610508940895E894BB2766278A
:101B40007727CB0197F908950E94570D08F48FEF7E
:101B500008950E94BC0D0C942D0E0E941F0E38F0AB
:101B60000E94260E20F0952311F00C94160E0C9472
:101B70001C0E11240C949E0D0E947B0D70F3959FFA
:101B8000C1F3950F50E0551F629FF001729FBB2774
:101B9000F00DB11D639FAA27F00DB11DAA1F649F10
:101BA0006627B00DA11D661F829F2227B00DA11DC3
:101BB000621F739FB00DA11D621F839FA00D611D49
:101BC000221F749F3327A00D611D231F849F600D6A
:101BD000211D822F762F6A2F11249F5750409AF093
:101BE000F1F088234AF0EE0FFF1FBB1F661F771F1F
:101BF000881F91505040A9F79E3F510580F00C94EA
:101C0000160E0C949E0D5F3FE4F3983ED4F3869538
:101C100077956795B795F795E7959F5FC1F7FE2B89
:101C2000880F911D9695879597F9089597F99F6765
:101C300080E870E060E008959FEF80EC0895002454
:101C40000A941616170618060906089500240A9421
:101C500012161306140605060895092E0394000CA7
:101C600011F4882352F0BB0F40F4BF2B11F460FF36
:101C700004C06F5F7F4F8F4F9F4F0895FB01DC01C2
:101C80008D91019080190110D9F3990B0895F89462
:021C9000FFCF84
:101C9200596F7520617265206120205468696566FC
:101CA2000057656C636F6D6520496E20796F7572A0
:101CB20020486F6D65005468697320497320596F1D
:101CC20075722063686F6963657300442D3E20540A
:101CD2006F206F70656E20446F6F72004C2D3E2036
:101CE200546F204F70656E204C656400462D3E2077
:101CF200546F204F6666204C656400452D3E204C93
:101D02006F67204F757400456E7465722072696743
:101D120068742063686F696365007573657230313A
:101D220000757365723032007573657230330075F9
:101D32007365723034007573657230350075736582
:101D420072303600757365723037007573657230A4
:101D52003800757365723039007573657231300001
:101D620031313131003232323200333333330034E5
:101D720034343400353535350036363636003737AB
:101D8200373700383838380039393939003130318D
:101D9200300048656C6C6F20456E74657220557317
:101DA200657200456E7465722050617373776F724D
:101DB200640055736572204E6F7420466F756E64B1
:021DC20000001F
:00000001FF
